:100000000C942A000C948A050C94B3050C94DD051D
:100010000C9447000C9447000C94DE060C948C065C
:100020000C94B5060C9463060C9447000C9447009E
:100030000C9447000C9413070C9447000C943C0755
:100040000C9447000C9447000C9447000C94470014
:100050000C94470011241FBECFE5D8E0DEBFCDBF12
:1000600010E0A0E6B0E0EEE6FFE002C005900D92E1
:10007000AA39B107D9F720E0AAE9B0E001C01D9282
:10008000AF3AB207E1F70E9418020C94B5070C943E
:100090000000CF93C0E006C061E08CE08C0F0E94AE
:1000A0001D04CF5FC430C0F3CF910895CF93C82F04
:1000B00061E089E00E941D046C2F661F6627661FA1
:1000C00087E00E941D04C6FB662760F986E00E9457
:1000D0001D04C5FB662760F985E00E941D04C4FB72
:1000E000662760F984E00E941D0461E088E00E94B8
:1000F0001D048FEC97E00197F1F700C0000060E06D
:1001000088E00E941D048FEC97E00197F1F700C092
:100110000000C3FB662760F987E00E941D04C2FB54
:10012000662760F986E00E941D04C1FB662760F91E
:1001300085E00E941D046C2F617084E00E941D0404
:1001400061E088E00E941D048FEC97E00197F1F7D1
:1001500000C0000060E088E00E941D048FEC97E082
:100160000197F1F700C00000CF910895CF93C82FF9
:1001700060E089E00E941D046C2F661F6627661FE1
:1001800087E00E941D04C6FB662760F986E00E9496
:100190001D04C5FB662760F985E00E941D04C4FBB1
:1001A000662760F984E00E941D0461E088E00E94F7
:1001B0001D048FEC97E00197F1F700C0000060E0AC
:1001C00088E00E941D048FEC97E00197F1F700C0D2
:1001D0000000C3FB662760F987E00E941D04C2FB94
:1001E000662760F986E00E941D04C1FB662760F95E
:1001F00085E00E941D046C2F617084E00E941D0444
:1002000061E088E00E941D048FEC97E00197F1F710
:1002100000C0000060E088E00E941D048FEC97E0C1
:100220000197F1F700C00000CF9108952FE788E310
:1002300091E0215080409040E1F700C0000082E052
:100240000E94B60088E20E94B6008CE00E94B600D0
:1002500081E00E94B6008FEC97E00197F1F700C0B3
:10026000000086E00E94B6000895811105C080E874
:10027000860F0E94B6000895813021F480EC860F2D
:100280000E94B60008950E94560008950F931F9390
:10029000CF938C01C0E003C00E944301CF5FF801FF
:1002A000EC0FF11D80818111F7CFCF911F910F913C
:1002B0000895CF92DF92EF92FF921F93CF93DF9337
:1002C000CDB7DEB764970FB6F894DEBF0FBECDBFD3
:1002D0006B017C01611571058105910521F480E3B5
:1002E0000E9443013BC099235CF48DE20E944301CC
:1002F000F094E094D094C094C11CD11CE11CF11C7A
:1003000010E015C0C701B6012AE030E040E050E03F
:100310000E948707E1E0F0E0EC0FFD1FE10FF11D07
:10032000605D60831F5FC22ED32EE42EF52EC114B4
:10033000D104E104F10431F7FF24FA94F10E0CC06A
:10034000E1E0F0E0EC0FFD1FEF0DF11DF7FCFA9579
:1003500080810E944301FA94FF2094F764960FB6BF
:10036000F894DEBF0FBECDBFDF91CF911F91FF90FC
:10037000EF90DF90CF90089580E00E9401039C01F0
:10038000ADECBCEC0E94A60796958795969587954F
:10039000969587950895809160008F5F80936000A7
:1003A0000895809161008B3431F46BE480E090E03B
:1003B0000E94E104089580E090E00E94ED048093A3
:1003C0006100609161006B5F80E090E00E94E10459
:1003D000089580916100833231F463E280E090E01F
:1003E0000E94E104089580E090E00E94ED04809373
:1003F000610060916100655080E090E00E94E1043E
:10040000089580EB9CE39DBD8CBD80919A008F5F29
:1004100080939A00823059F40E94BC0190939C0012
:1004200080939B0083E10E94A00410929A0008959B
:100430000E940D040E9416010E94490063E081E0C1
:100440000E94CE020E9468050E940707789462E02D
:1004500080E00E94060680EB9CE39DBD8CBD0E945F
:100460005A0681E00E94F60480E00E94F60482E0D1
:100470000E94F60480E090E00E94ED048093610009
:100480006091610080E090E00E94E10480E090E0F3
:100490000E94ED048093610081E092E00E945E067C
:1004A00061ED71E080E00E94750569EE71E081E028
:1004B0000E9475056BEC71E082E00E94750560E0BA
:1004C00080E00E94350182E890E00E9446016CE0E5
:1004D00080E00E9435016091610070E080E090E072
:1004E0000E94590160E081E00E9435018FE890E0B0
:1004F0000E9446016BE081E00E94350160919B0003
:1005000070919C0080E090E00E9459018091610010
:1005100090E0059720919B0030919C0028173907A7
:1005200048F48091600080FD05C061E080E10E9498
:100530001D040FC08091610090E0059620919B0002
:1005400030919C008217930720F460E080E10E94C4
:100550001D048091610090E0059620919B003091F0
:100560009C008217930748F48091600080FD05C0CD
:1005700061E081E10E941D0489CF8091610090E0DB
:10058000059720919B0030919C002817390708F0AF
:100590007DCF60E081E10E941D0478CF813059F069
:1005A00018F0823079F014C087B18F7B87B987B19A
:1005B0008F7787B90DC087B1806487B987B18F778E
:1005C00087B906C087B1806487B987B1806887B969
:1005D00086B1887F86B9677086B1682B66B986B1A7
:1005E000806886B9089597B1907E97B997B1892BA5
:1005F00087B986B1806486B93699FECF84B195B14A
:1006000008950E94F3029C01A8E8B3E10E94A607A6
:100610002FEF33E040E050E00E946507C9010895E4
:10062000982F9770869586958695613009F455C008
:1006300020F0623009F4A1C008958130C1F028F0A3
:10064000823039F18330B9F108954AB321E030E0C6
:10065000B90102C0660F771F9A95E2F7CB01942F7C
:10066000982B9ABB9BB3809589238BBB089547B386
:1006700021E030E0B90102C0660F771F9A95E2F7DA
:10068000CB01942F982B97BB98B38095892388BB77
:10069000089544B321E030E0B90102C0660F771F2E
:1006A0009A95E2F7CB01942F982B94BB95B3809544
:1006B000892385BB089541B321E030E0B90102C030
:1006C000660F771F9A95E2F7CB01942F982B91BB79
:1006D00092B38095892382BB08958130C1F028F0C0
:1006E000823039F18330B9F108954AB321E030E026
:1006F000B90102C0660F771F9A95E2F7CB0180958A
:10070000942F98239ABB9BB389238BBB089547B33F
:1007100021E030E0B90102C0660F771F9A95E2F739
:10072000CB018095942F982397BB98B3892388BBDE
:10073000089544B321E030E0B90102C0660F771F8D
:100740009A95E2F7CB018095942F982394BB95B3AB
:10075000892385BB089541B321E030E0B90102C08F
:10076000660F771F9A95E2F7CB018095942F982317
:1007700091BB92B3892382BB08958130C1F028F0E8
:10078000823039F18330B9F108954AB321E030E085
:10079000B90102C0660F771F9A95E2F7CB01962F39
:1007A000909594239ABB9BB3892B8BBB089547B339
:1007B00021E030E0B90102C0660F771F9A95E2F799
:1007C000CB01962F9095942397BB98B3892B88BB28
:1007D000089544B321E030E0B90102C0660F771FED
:1007E0009A95E2F7CB01962F9095942394BB95B3FD
:1007F000892B85BB089541B321E030E0B90102C0E7
:10080000660F771F9A95E2F7CB01962F9095942368
:1008100091BB92B3892B82BB0895CF93C0E009C0EE
:10082000EC2FF0E0EE59FF4F60818C2F0E941003F7
:10083000CF5FC032A8F3CF910895982F9770869517
:10084000869586956130E1F5813099F028F0823007
:10085000E9F0833041F108954BB321E030E0B90174
:1008600002C0660F771F9A95E2F7CB01842B8BBBF2
:10087000089548B321E030E0B90102C0660F771F48
:100880009A95E2F7CB01842B88BB089545B321E00C
:1008900030E0B90102C0660F771F9A95E2F7CB01ED
:1008A000842B85BB089542B321E030E0B90102C03A
:1008B000660F771F9A95E2F7CB01842B82BB0895D0
:1008C0008130A1F028F08230F9F0833059F1089599
:1008D0004BB321E030E0B90102C0660F771F9A9553
:1008E000E2F7CB01809584238BBB089548B321E0C8
:1008F00030E0B90102C0660F771F9A95E2F7CB018D
:100900008095842388BB089545B321E030E0B90188
:1009100002C0660F771F9A95E2F7CB01809584237A
:1009200085BB089542B321E030E0B90102C0660FF3
:10093000771F9A95E2F7CB018095842382BB0895B7
:10094000982F9770869586958695813099F028F036
:100950008230E9F0833041F108954BB321E030E07B
:10096000B90102C0660F771F9A95E2F7CB01842781
:100970008BBB089548B321E030E0B90102C0660F97
:10098000771F9A95E2F7CB01842788BB089545B37A
:1009900021E030E0B90102C0660F771F9A95E2F7B7
:1009A000CB01842785BB089542B321E030E0B90133
:1009B00002C0660F771F9A95E2F7CB01842782BBAE
:1009C0000895E199FECF9FBB8EBB6DBB8CB3846055
:1009D0008CBB8CB382608CBB0895E199FECF9FBB2A
:1009E0008EBB8CB381608CBB8DB30895813041F098
:1009F00018F0823049F008958BB780648BBF08955A
:100A00008BB780688BBF08958BB780628BBF0895CA
:100A1000813049F120F0823009F449C008956130F5
:100A200069F028F0623089F06330B1F0089585B73D
:100A30008E7F85BF85B78D7F85BF089585B781601F
:100A400085BF85B78D7F85BF089585B78E7F85BFAC
:100A500085B7826085BF089585B7816085BF85B7FA
:100A6000826085BF0895613069F028F0623089F0B6
:100A70006330B1F0089585B78B7F85BF85B7877FD9
:100A800085BF089585B7846085BF85B7877F85BF9B
:100A9000089585B78B7F85BF85B7886085BF08952A
:100AA00085B7846085BF85B7886085BF089562304B
:100AB00019F0633029F008C084B78F7B84BF089594
:100AC00084B7806484BF089584B78F7B84BF089502
:100AD00062E080E00E94080562E081E00E94080573
:100AE00062E082E00E9408050895813049F018F024
:100AF000823059F008957093A2006093A100089588
:100B00007093A00060939F00089570939E0060937F
:100B10009D0008951F920F920FB60F9211242F93EC
:100B20003F934F935F936F937F938F939F93AF9375
:100B3000BF93EF93FF93E091A100F091A200309753
:100B400009F00995FF91EF91BF91AF919F918F911E
:100B50007F916F915F914F913F912F910F900FBEB9
:100B60000F901F90189578941F920F920FB60F92C6
:100B700011242F933F934F935F936F937F938F93A2
:100B80009F93AF93BF93EF93FF93E0919F00F091FA
:100B9000A000309709F00995FF91EF91BF91AF91B7
:100BA0009F918F917F916F915F914F913F912F9185
:100BB0000F900FBE0F901F9018951F920F920FB6B7
:100BC0000F9211242F933F934F935F936F937F93D3
:100BD0008F939F93AF93BF93EF93FF93E0919D000B
:100BE000F0919E00309709F00995FF91EF91BF9128
:100BF000AF919F918F917F916F915F914F913F91B5
:100C00002F910F900FBE0F901F901895823029F1F1
:100C100028F4882341F0813099F045C0833051F1A8
:100C20008430A9F140C08FB58E7F8FBD8FB58D7F89
:100C30008FBD8EB5877F8EBD8EB58F7E8EBD33C046
:100C40008FB58E7F8FBD8FB58D7F8FBD8EB5886040
:100C50008EBD8EB580618EBD26C08FB58E7F8FBD57
:100C60008FB58D7F8FBD8EB588608EBD8EB58F7E22
:100C70008EBD19C08FB58E7F8FBD8FB582608FBD41
:100C80008EB588608EBD8EB580618EBD0CC08FB56F
:100C900081608FBD8FB582608FBD8EB588608EBD3F
:100CA0008EB580618EBD8EB5887F8EBD8EB5682B6A
:100CB0006EBD089589B7846089BF08959093AA0096
:100CC0008093A90008951F920F920FB60F921124DE
:100CD0002F933F934F935F936F937F938F939F9344
:100CE000AF93BF93EF93FF93E091A900F091AA0017
:100CF000309709F00995FF91EF91BF91AF919F91C6
:100D00008F917F916F915F914F913F912F910F90B4
:100D10000FBE0F901F9018951F920F920FB60F9253
:100D200011242F933F934F935F936F937F938F93F0
:100D30009F93AF93BF93EF93FF93E091A700F09140
:100D4000A800309709F00995FF91EF91BF91AF91FD
:100D50009F918F917F916F915F914F913F912F91D3
:100D60000F900FBE0F901F9018951F920F920FB605
:100D70000F9211242F933F934F935F936F937F9321
:100D80008F939F93AF93BF93EF93FF93E091A50051
:100D9000F091A600309709F00995FF91EF91BF916E
:100DA000AF919F918F917F916F915F914F913F9103
:100DB0002F910F900FBE0F901F9018951F920F92BA
:100DC0000FB60F9211242F933F934F935F936F931E
:100DD0007F938F939F93AF93BF93EF93FF93E09194
:100DE000A300F091A400309709F00995FF91EF91CD
:100DF000BF91AF919F918F917F916F915F914F9133
:100E00003F912F910F900FBE0F901F90189583E385
:100E100089B98BB18D7F8BB98AB180618AB98AB16A
:100E200088608AB908951F920F920FB60F9211240D
:100E30002F933F934F935F936F937F938F939F93E2
:100E4000AF93BF93EF93FF93E091AD00F091AE00AD
:100E5000309709F00995FF91EF91BF91AF919F9164
:100E60008F917F916F915F914F913F912F910F9053
:100E70000FBE0F901F9018951F920F920FB60F92F2
:100E800011242F933F934F935F936F937F938F938F
:100E90009F93AF93BF93EF93FF93E091AB00F091DB
:100EA000AC00309709F00995FF91EF91BF91AF9198
:100EB0009F918F917F916F915F914F913F912F9172
:100EC0000F900FBE0F901F901895A1E21A2EAA1B2B
:100ED000BB1BFD010DC0AA1FBB1FEE1FFF1FA217EA
:100EE000B307E407F50720F0A21BB30BE40BF50BE7
:100EF000661F771F881F991F1A9469F76095709570
:100F0000809590959B01AC01BD01CF010895052E00
:100F100097FB1EF400940E949E0757FD07D00E9485
:100F2000650707FC03D04EF40C949E07509540953E
:100F3000309521953F4F4F4F5F4F08959095809585
:100F4000709561957F4F8F4F9F4F0895A29FB0017D
:100F5000B39FC001A39F700D811D1124911DB29FED
:0E0F6000700D811D1124911D0895F894FFCF8E
:100F6E00013C010100010000000000000200000031
:100F7E00010000000000000000000202020200005A
:100F8E000102446573697265642054656D70005288
:0A0F9E0065616C2054656D70000061
:00000001FF
