S0120000536D6172745F486F6D652E7372656323
S11300000C942A000C94CA040C94F3040C941D055B
S11300100C9447000C9447000C94C1050C946F0594
S11300200C9498050C9446050C9447000C944700D6
S11300300C9447000C94EA050C9447000C941306A6
S11300400C9447000C9447000C9447000C94470010
S11300500C94470011241FBECFE5D8E0DEBFCDBF0E
S113006010E0A0E6B0E0ECE1FDE002C005900D92E6
S1130070AA39B107D9F720E0AAE9B0E001C01D927E
S1130080AC3AB207E1F70E94E9010C948C060C9497
S11300900000CF93C82F61E089E00E94B3036C2F66
S11300A0661F6627661F87E00E94B303C6FB6627A8
S11300B060F986E00E94B303C5FB662760F985E01A
S11300C00E94B303C4FB662760F984E00E94B30373
S11300D061E088E00E94B3038FEC97E00197F1F7A9
S11300E000C0000060E088E00E94B3038FEC97E05A
S11300F00197F1F700C00000C3FB662760F987E0B1
S11301000E94B303C2FB662760F986E00E94B30332
S1130110C1FB662760F985E00E94B3036C2F617010
S113012084E00E94B30361E088E00E94B3038FEC93
S113013097E00197F1F700C0000060E088E00E94BA
S1130140B3038FEC97E00197F1F700C00000CF9163
S11301500895CF93C82F60E089E00E94B3036C2F09
S1130160661F6627661F87E00E94B303C6FB6627E7
S113017060F986E00E94B303C5FB662760F985E059
S11301800E94B303C4FB662760F984E00E94B303B2
S113019061E088E00E94B3038FEC97E00197F1F7E8
S11301A000C0000060E088E00E94B3038FEC97E099
S11301B00197F1F700C00000C3FB662760F987E0F0
S11301C00E94B303C2FB662760F986E00E94B30372
S11301D0C1FB662760F985E00E94B3036C2F617050
S11301E084E00E94B30361E088E00E94B3038FECD3
S11301F097E00197F1F700C0000060E088E00E94FA
S1130200B3038FEC97E00197F1F700C00000CF91A2
S113021008952FE788E391E0215080409040E1F772
S113022000C0000082E00E94A90088E20E94A900A8
S11302308CE00E94A90081E00E94A9008FEC97E065
S11302400197F1F700C0000086E00E94A90008951C
S1130250811105C080E8860F0E94A90008958130AD
S113026021F480EC860F0E94A90008950E944900A1
S113027008950F931F93CF938C01C0E003C00E9495
S11302803601CF5FF801EC0FF11D80818111F7CFAA
S1130290CF911F910F910895CF92DF92EF92FF9229
S11302A01F93CF93DF93CDB7DEB764970FB6F8945F
S11302B0DEBF0FBECDBF6B017C01611571058105E9
S11302C0910521F480E30E9436013BC099235CF43C
S11302D08DE20E943601F094E094D094C094C11C45
S11302E0D11CE11CF11C10E015C0C701B6012AE0C5
S11302F030E040E050E00E945E06E1E0F0E0EC0F08
S1130300FD1FE10FF11D605D60831F5FC22ED32EC0
S1130310E42EF52EC114D104E104F10431F7FF24D5
S1130320FA94F10E0CC0E1E0F0E0EC0FFD1FEF0DCC
S1130330F11DF7FCFA9580810E943601FA94FF20A2
S113034094F764960FB6F894DEBF0FBECDBFDF916D
S1130350CF911F91FF90EF90DF90CF90089580E0B0
S11303600E9497029C01ADECBCEC0E947D06969520
S113037087959695879596958795089580916100C0
S113038090916200059690936200809361008C3492
S1130390910530F08BE490E09093620080936100CB
S11303A00895809161009091620005979093620096
S11303B080936100839730F483E290E0909362002D
S11303C0809361000895809160008F5F8093600046
S11303D008950E94A3030E94090163E081E00E9442
S11303E064020E94A80481E00E94360480E00E9416
S11303F0360482E00E943604789461E082E00E9430
S1130400B30380E00E9497020E94AF01EC016EEBFF
S113041071E080E00E94B50461ED71E081E00E942A
S1130420B50463EE71E082E00E94B50460E080E010
S11304300E94280183E890E00E9439016CE080E08A
S11304400E942801609161007091620080E090E058
S11304500E944C0160E081E00E94280180E990E064
S11304600E9439016BE081E00E942801BE0180E016
S113047090E00E944C018091610090916200C81745
S1130480D90748F48091600080FD05C061E080E1F7
S11304900E94B30304C060E080E10E94B303809132
S11304A06100909162008C179D0748F48091600070
S11304B080FD05C061E081E10E94B303A2CF60E04A
S11304C081E10E94B3039DCF813059F018F082304E
S11304D079F014C087B18F7B87B987B18F7787B9DB
S11304E00DC087B1806487B987B18F7787B906C09B
S11304F087B1806487B987B1806887B986B1887FFE
S113050086B9677086B1682B66B986B1806886B98A
S1130510089597B1907E97B997B1892B87B986B121
S1130520806486B93699FECF84B195B108950E944E
S113053089029C01A8E8B3E10E947D062FEF33E015
S113054040E050E00E943C06C9010895982F97703E
S1130550869586958695613009F455C020F0623001
S113056009F4A1C008958130C1F028F0823039F136
S11305708330B9F108954AB321E030E0B90102C0F3
S1130580660F771F9A95E2F7CB01942F982B9ABBAD
S11305909BB3809589238BBB089547B321E030E05A
S11305A0B90102C0660F771F9A95E2F7CB01942F29
S11305B0982B97BB98B38095892388BB089544B33F
S11305C021E030E0B90102C0660F771F9A95E2F787
S11305D0CB01942F982B94BB95B38095892385BB2D
S11305E0089541B321E030E0B90102C0660F771FDE
S11305F09A95E2F7CB01942F982B91BB92B38095F7
S1130600892382BB08958130C1F028F0823039F10A
S11306108330B9F108954AB321E030E0B90102C052
S1130620660F771F9A95E2F7CB018095942F982354
S11306309ABB9BB389238BBB089547B321E030E079
S1130640B90102C0660F771F9A95E2F7CB01809536
S1130650942F982397BB98B3892388BB089544B3F8
S113066021E030E0B90102C0660F771F9A95E2F7E6
S1130670CB018095942F982394BB95B3892385BB94
S1130680089541B321E030E0B90102C0660F771F3D
S11306909A95E2F7CB018095942F982391BB92B35E
S11306A0892382BB08958130C1F028F0823039F16A
S11306B08330B9F108954AB321E030E0B90102C0B2
S11306C0660F771F9A95E2F7CB01962F90959423A6
S11306D09ABB9BB3892B8BBB089547B321E030E0D1
S11306E0B90102C0660F771F9A95E2F7CB01962FE6
S11306F09095942397BB98B3892B88BB089544B3F2
S113070021E030E0B90102C0660F771F9A95E2F745
S1130710CB01962F9095942394BB95B3892B85BBDD
S1130720089541B321E030E0B90102C0660F771F9C
S11307309A95E2F7CB01962F9095942391BB92B3AF
S1130740892B82BB0895CF93C0E009C0EC2FF0E061
S1130750ED59FF4F60818C2F0E94A602CF5FC032FB
S1130760A8F3CF910895982F9770869586958695CE
S11307706130E1F5813099F028F08230E9F083307E
S113078041F108954BB321E030E0B90102C0660F96
S1130790771F9A95E2F7CB01842B8BBB089548B35E
S11307A021E030E0B90102C0660F771F9A95E2F7A5
S11307B0CB01842B88BB089545B321E030E0B90117
S11307C002C0660F771F9A95E2F7CB01842B85BB95
S11307D0089542B321E030E0B90102C0660F771FEB
S11307E09A95E2F7CB01842B82BB08958130A1F066
S11307F028F08230F9F0833059F108954BB321E0A9
S113080030E0B90102C0660F771F9A95E2F7CB0179
S1130810809584238BBB089548B321E030E0B9016F
S113082002C0660F771F9A95E2F7CB018095842367
S113083088BB089545B321E030E0B90102C0660FDA
S1130840771F9A95E2F7CB018095842385BB0895A1
S113085042B321E030E0B90102C0660F771F9A95D8
S1130860E2F7CB018095842382BB0895813041F067
S113087018F0823049F008958BB780648BBF0895D7
S11308808BB780688BBF08958BB780628BBF089548
S1130890813049F120F0823009F449C00895613073
S11308A069F028F0623089F06330B1F0089585B7BB
S11308B08E7F85BF85B78D7F85BF089585B781609D
S11308C085BF85B78D7F85BF089585B78E7F85BF2A
S11308D085B7826085BF089585B7816085BF85B778
S11308E0826085BF0895613069F028F0623089F034
S11308F06330B1F0089585B78B7F85BF85B7877F57
S113090085BF089585B7846085BF85B7877F85BF18
S1130910089585B78B7F85BF85B7886085BF0895A7
S113092085B7846085BF85B7886085BF08956230C8
S113093019F0633029F008C084B78F7B84BF089511
S113094084B7806484BF089584B78F7B84BF08957F
S113095062E080E00E94480462E081E00E94480472
S113096062E082E00E9448040895813049F018F062
S1130970823059F0089570939F0060939E0008950B
S113098070939D0060939C00089570939B00609306
S11309909A0008951F920F920FB60F9211242F936D
S11309A03F934F935F936F937F938F939F93AF93F3
S11309B0BF93EF93FF93E0919E00F0919F003097D7
S11309C009F00995FF91EF91BF91AF919F918F919C
S11309D07F916F915F914F913F912F910F900FBE37
S11309E00F901F90189578941F920F920FB60F9244
S11309F011242F933F934F935F936F937F938F9320
S1130A009F93AF93BF93EF93FF93E0919C00F0917A
S1130A109D00309709F00995FF91EF91BF91AF9137
S1130A209F918F917F916F915F914F913F912F9102
S1130A300F900FBE0F901F9018951F920F920FB634
S1130A400F9211242F933F934F935F936F937F9350
S1130A508F939F93AF93BF93EF93FF93E0919A008B
S1130A60F0919B00309709F00995FF91EF91BF91A8
S1130A70AF919F918F917F916F915F914F913F9132
S1130A802F910F900FBE0F901F9018951F920F92E9
S1130A900FB60F9211242F933F934F935F936F934D
S1130AA07F938F939F93AF93BF93EF93FF93E091C3
S1130AB0A600F091A700309709F00995FF91EF91F6
S1130AC0BF91AF919F918F917F916F915F914F9162
S1130AD03F912F910F900FBE0F901F9018951F926A
S1130AE00F920FB60F9211242F933F934F935F935E
S1130AF06F937F938F939F93AF93BF93EF93FF93E2
S1130B00E091A400F091A500309709F00995FF91B8
S1130B10EF91BF91AF919F918F917F916F915F9171
S1130B204F913F912F910F900FBE0F901F901895EA
S1130B301F920F920FB60F9211242F933F934F934E
S1130B405F936F937F938F939F93AF93BF93EF9331
S1130B50FF93E091A200F091A300309709F009956A
S1130B60FF91EF91BF91AF919F918F917F916F9181
S1130B705F914F913F912F910F900FBE0F901F9057
S1130B8018951F920F920FB60F9211242F933F9333
S1130B904F935F936F937F938F939F93AF93BF9381
S1130BA0EF93FF93E091A000F091A100309709F03A
S1130BB00995FF91EF91BF91AF919F918F917F9193
S1130BC06F915F914F913F912F910F900FBE0F90B6
S1130BD01F9018951F920F920FB60F9211242F9306
S1130BE03F934F935F936F937F938F939F93AF93B1
S1130BF0BF93EF93FF93E091AA00F091AB0030977D
S1130C0009F00995FF91EF91BF91AF919F918F9159
S1130C107F916F915F914F913F912F910F900FBEF4
S1130C200F901F9018951F920F920FB60F921124D8
S1130C302F933F934F935F936F937F938F939F93E0
S1130C40AF93BF93EF93FF93E091A800F091A900B5
S1130C50309709F00995FF91EF91BF91AF919F9162
S1130C608F917F916F915F914F913F912F910F9051
S1130C700FBE0F901F901895A1E21A2EAA1BBB1B42
S1130C80FD010DC0AA1FBB1FEE1FFF1FA217B30754
S1130C90E407F50720F0A21BB30BE40BF50B661F6A
S1130CA0771F881F991F1A9469F76095709580952E
S1130CB090959B01AC01BD01CF010895052E97FBD2
S1130CC01EF400940E94750657FD07D00E943C064E
S1130CD007FC03D04EF40C9475065095409530955E
S1130CE021953F4F4F4F5F4F089590958095709594
S1130CF061957F4F8F4F9F4F0895A29FB001B39F7F
S1130D00C001A39F700D811D1124911DB29F700D10
S10F0D10811D1124911D0895F894FFCF5B
S1130D1C0148000101000100000000000002000075
S1130D2C00010000000000000000000202020200AA
S1130D3C000102446573697265642054656D70002A
S10D0D4C5265616C2054656D70005F
S9030000FC
