:100000000C942A000C94FF040C9428050C945205BF
:100010000C9447000C9447000C943B060C94E905A3
:100020000C9412060C94C0050C9447000C944700E5
:100030000C9447000C946A060C9447000C949306A9
:100040000C9447000C9447000C9447000C94470014
:100050000C94470011241FBECFE5D8E0DEBFCDBF12
:1000600010E0A0E6B0E0E4E4FEE002C005900D92EE
:10007000AA39B107D9F720E0AAE9B0E001C01D9282
:10008000AF3AB207E1F70E9420020C9420070C94CB
:100090000000CF93CCE061E08C2F0E94C503CF5FBE
:1000A000C031C9F7CF910895CF93C82F61E089E09F
:1000B0000E94C5036C2F661F6627661F87E00E949B
:1000C000C503C6FB662760F986E00E94C503C5FB31
:1000D000662760F985E00E94C503C4FB662760F9C6
:1000E00084E00E94C50361E088E00E94C5038FECB4
:1000F00097E00197F1F700C0000060E088E00E94FF
:10010000C5038FEC97E00197F1F700C00000C3FB37
:10011000662760F987E00E94C503C2FB662760F985
:1001200086E00E94C503C1FB662760F985E00E9456
:10013000C5036C2F617084E00E94C50361E088E014
:100140000E94C5038FEC97E00197F1F700C0000013
:1001500060E088E00E94C5038FEC97E00197F1F71B
:1001600000C00000CF910895CF93C82F60E089E0D0
:100170000E94C5036C2F661F6627661F87E00E94DA
:10018000C503C6FB662760F986E00E94C503C5FB70
:10019000662760F985E00E94C503C4FB662760F905
:1001A00084E00E94C50361E088E00E94C5038FECF3
:1001B00097E00197F1F700C0000060E088E00E943E
:1001C000C5038FEC97E00197F1F700C00000C3FB77
:1001D000662760F987E00E94C503C2FB662760F9C5
:1001E00086E00E94C503C1FB662760F985E00E9496
:1001F000C5036C2F617084E00E94C50361E088E054
:100200000E94C5038FEC97E00197F1F700C0000052
:1002100060E088E00E94C5038FEC97E00197F1F75A
:1002200000C00000CF9108952FE788E391E02150AE
:1002300080409040E1F700C0000082E00E94B400DE
:1002400088E20E94B4008CE00E94B40081E00E9429
:10025000B4008FEC97E00197F1F700C0000086E052
:100260000C94B400811102C080E803C0813021F4F5
:1002700080EC860F0C94B40008950F931F93CF93D6
:100280008C01C0E0F801EC0FF11D8081882321F082
:100290000E945400CF5FF6CFCF911F910F91089528
:1002A0004F925F926F927F92AF92BF92CF92DF9206
:1002B000EF92FF921F93CF93DF93CDB7DEB7649792
:1002C0000FB6F894DEBF0FBECDBF6B017C01611588
:1002D000710581059105B1F480E364960FB6F89439
:1002E000DEBF0FBECDBFDF91CF911F91FF90EF908A
:1002F000DF90CF90BF90AF907F906F905F904F90C6
:100300000C94540097FF0BC08DE20E945400F094AF
:10031000E094D094C094C11CD11CE11CF11C10E0ED
:100320009AE0492E512C612C712CAA24A394B12C53
:10033000AC0EBD1EA10EB11CC701B601A3019201F6
:100340000E94F206605DF501608381E0810F690122
:100350007A01C114D104E104F10411F0182FE5CFA2
:10036000F12EF7FC0DC0E1E0F0E0EC0FFD1FEF0D0A
:10037000F11DF7FCFA9580810E945400FA94F1CFA8
:1003800064960FB6F894DEBF0FBECDBFDF91CF915C
:100390001F91FF90EF90DF90CF90BF90AF907F9034
:1003A0006F905F904F90089580E00E94D8026AE0BD
:1003B00070E00E94BC06CB010895809160008F5FC1
:1003C000809360000895809161008B3411F46BE498
:1003D00009C080E090E00E948104809361006091F8
:1003E00061006B5F80E090E00C9479048091610083
:1003F000833211F463E209C080E090E00E9481043E
:100400008093610060916100655080E090E00C9401
:10041000790480EB9CE39DBD8CBD80919A008F5F39
:1004200080939A00823059F40E94D40190939C00EA
:1004300080939B0083E10E94440410929A000895E7
:100440000E94E7020E9414010E94490063E081E0DB
:100450000E94B7020E94DE040E946406789462E063
:1004600080E00E947B0580EB9CE39DBD8CBD0E94DB
:10047000B70581E00E94880480E00E94880482E041
:100480000E94880480E090E00E94810480936100D3
:100490006091610080E090E00E94790480E090E04B
:1004A0000E9481048093610089E092E00E94BB0574
:1004B00063EE71E080E00E94EA0466EF71E081E0A3
:1004C0000E94EA046DED71E082E00E94EA0460E0BF
:1004D00080E00E94320182E890E00E943D016CE0E1
:1004E00080E00E9432016091610070E080E090E065
:1004F0000E94500160E081E00E9432018FE890E0AC
:100500000E943D016BE081E00E94320160919B00FE
:1005100070919C0080E090E00E9450018091610009
:1005200020919B0030919C0090E02817390730F40F
:100530008091600080FD02C061E001C060E080E168
:100540000E94C5038091610020919B0030919C0026
:1005500090E08217930730F48091600080FD02C024
:1005600061E001C060E081E10E94C50397CF813066
:1005700041F028F0823039F43E9A3F9A04C03E9808
:1005800001C03E9A3F9886B1887F86B986B1677070
:10059000682B66B9379A089597B1907E97B997B14D
:1005A000892B87B9369A3699FECF84B195B10895D3
:1005B0000E94CC029C01A8E8B3E10E9411072FEF32
:1005C00033E040E050E00E94D006C9010895E2E621
:1005D000F0E040E081E090E05191242F2770342F2B
:1005E000369536953695513009F443C020F0523097
:1005F00009F482C0C5C0323001F1333061F13130CD
:1006000071F05AB3BC0102C0660F771F2A95E2F75A
:100610009B01352F322B3ABB3BB320953DC057B3DE
:10062000BC0102C0660F771F2A95E2F79B01352FA8
:10063000322B37BB38B320953EC054B3BC0102C047
:10064000660F771F2A95E2F79B01352F322B34BBBB
:1006500035B320953FC051B3BC0102C0660F771F70
:100660002A95E2F79B01352F322B31BB32B320950F
:1006700041C0323011F1333081F1313079F05AB369
:10068000BC0102C0660F771F2A95E2F79B012095F7
:10069000352F32233ABB3BB3232342C057B3BC01AF
:1006A00002C0660F771F2A95E2F79B012095352F30
:1006B000322337BB38B3232343C054B3BC0102C039
:1006C000660F771F2A95E2F79B012095352F32237D
:1006D00034BB35B3232325BB53C051B3BC0102C087
:1006E000660F771F2A95E2F79B012095352F32235D
:1006F00031BB32B3232343C0323021F1333089F18F
:10070000313081F05AB3BC0102C0660F771F2A95C1
:10071000E2F79B01362F309535233ABB3BB3232BB1
:100720002BBB2EC057B3BC0102C0660F771F2A95A2
:10073000E2F79B01362F3095352337BB38B3232B97
:1007400028BB1EC054B3BC0102C0660F771F2A9598
:10075000E2F79B01362F3095352334BB35B3232B7D
:10076000BACF51B3BC0102C0660F771F2A95E2F7DA
:100770009B01362F3095352331BB32B3232B22BB5F
:100780004F5F403209F028CF0895982F97708695D3
:10079000869586956130C1F5813091F028F08230E0
:1007A000D9F0833029F108954BB321E030E0B9014D
:1007B00002C0660F771F9A95E2F7CB01842B38C0F1
:1007C00048B321E030E0B90102C0660F771F9A9567
:1007D000E2F7CB01842B3AC045B321E030E0B90108
:1007E00002C0660F771F9A95E2F7CB01842B3CC0BD
:1007F00042B321E030E0B90102C0660F771F9A953D
:10080000E2F7CB01842B3EC08130A1F028F082308A
:10081000F9F0833059F108954BB321E030E0B9018C
:1008200002C0660F771F9A95E2F7CB01809584236B
:100830008BBB089548B321E030E0B90102C0660FD8
:10084000771F9A95E2F7CB018095842388BB0895A2
:1008500045B321E030E0B90102C0660F771F9A95D9
:10086000E2F7CB018095842385BB089542B321E054
:1008700030E0B90102C0660F771F9A95E2F7CB010D
:100880008095842382BB0895282F277086958695AE
:100890008695813081F028F08230B9F08330F9F00C
:1008A00008953BB381E090E001C0880F2A95EAF7F4
:1008B00083278BBB089538B381E090E001C0880F97
:1008C0002A95EAF7832788BB089535B381E090E045
:1008D00001C0880F2A95EAF7832785BB089532B3B4
:1008E00081E090E001C0880F2A95EAF7832782BB58
:1008F0000895E199FECF9FBB8EBB6DBBE29AE19A52
:100900000895E199FECF9FBB8EBBE09A8DB3089509
:10091000813039F018F0823039F008958BB7806457
:1009200005C08BB7806802C08BB780628BBF08950B
:100930008130F1F018F08230B1F10895613049F062
:1009400028F0623061F0633069F0089585B78E7FDA
:1009500002C085B7816085BF85B78D7F22C085B70E
:100960008E7F02C085B7816085BF85B7826019C060
:10097000613049F028F0623061F0633069F0089529
:1009800085B78B7F02C085B7846085BF85B7877FB9
:1009900008C085B78B7F02C085B7846085BF85B7E7
:1009A000886085BF0895623029F0633019F484B7F8
:1009B000806402C084B78F7B84BF089562E080E0CA
:1009C0000E94980462E081E00E94980462E082E064
:1009D0000C949804813049F018F0823059F0089551
:1009E0007093A2006093A10008957093A00060939B
:1009F0009F00089570939E0060939D0008951F923C
:100A00000F920FB60F9211242F933F934F935F9342
:100A10006F937F938F939F93AF93BF93EF93FF93C6
:100A2000E091A100F091A200309709F00995FF91A3
:100A3000EF91BF91AF919F918F917F916F915F9156
:100A40004F913F912F910F900FBE0F901F901895CF
:100A500078941F920F920FB60F9211242F933F9309
:100A60004F935F936F937F938F939F93AF93BF93B6
:100A7000EF93FF93E0919F00F091A000309709F071
:100A80000995FF91EF91BF91AF919F918F917F91C8
:100A90006F915F914F913F912F910F900FBE0F90EB
:100AA0001F9018951F920F920FB60F9211242F933B
:100AB0003F934F935F936F937F938F939F93AF93E6
:100AC000BF93EF93FF93E0919D00F0919E003097CC
:100AD00009F00995FF91EF91BF91AF919F918F918F
:100AE0007F916F915F914F913F912F910F900FBE2A
:100AF0000F901F9018958230D9F050F4882379F028
:100B0000813071F58FB58E7F8FBD8FB58D7F21C000
:100B10008330D1F0843021F58FB5816017C08FB557
:100B20008E7F8FBD8FB58D7F8FBD8EB5877F08C0BF
:100B30008FB58E7F8FBD8FB58D7F8FBD8EB5886051
:100B40008EBD8EB58F7E0BC08FB58E7F8FBD8FB55E
:100B500082608FBD8EB588608EBD8EB580618EBD82
:100B60008EB5887F8EBD8EB5682B6EBD089589B712
:100B7000846089BF08959093AA008093A900089586
:100B80001F920F920FB60F9211242F933F934F9302
:100B90005F936F937F938F939F93AF93BF93EF93E5
:100BA000FF93E091A900F091AA00309709F0099510
:100BB000FF91EF91BF91AF919F918F917F916F9135
:100BC0005F914F913F912F910F900FBE0F901F900B
:100BD00018951F920F920FB60F9211242F933F93E7
:100BE0004F935F936F937F938F939F93AF93BF9335
:100BF000EF93FF93E091A700F091A800309709F0E0
:100C00000995FF91EF91BF91AF919F918F917F9146
:100C10006F915F914F913F912F910F900FBE0F9069
:100C20001F9018951F920F920FB60F9211242F93B9
:100C30003F934F935F936F937F938F939F93AF9364
:100C4000BF93EF93FF93E091A500F091A60030973A
:100C500009F00995FF91EF91BF91AF919F918F910D
:100C60007F916F915F914F913F912F910F900FBEA8
:100C70000F901F9018951F920F920FB60F9211248C
:100C80002F933F934F935F936F937F938F939F9394
:100C9000AF93BF93EF93FF93E091A300F091A40073
:100CA000309709F00995FF91EF91BF91AF919F9116
:100CB0008F917F916F915F914F913F912F910F9005
:100CC0000FBE0F901F90189583E389B95998549AD5
:100CD000539A08951F920F920FB60F9211242F93DB
:100CE0003F934F935F936F937F938F939F93AF93B4
:100CF000BF93EF93FF93E091AD00F091AE0030977A
:100D000009F00995FF91EF91BF91AF919F918F915C
:100D10007F916F915F914F913F912F910F900FBEF7
:100D20000F901F9018951F920F920FB60F921124DB
:100D30002F933F934F935F936F937F938F939F93E3
:100D4000AF93BF93EF93FF93E091AB00F091AC00B2
:100D5000309709F00995FF91EF91BF91AF919F9165
:100D60008F917F916F915F914F913F912F910F9054
:100D70000FBE0F901F901895AA1BBB1B51E107C017
:100D8000AA1FBB1FA617B70710F0A61BB70B881F1B
:100D9000991F5A95A9F780959095BC01CD010895AA
:100DA000A1E21A2EAA1BBB1BFD010DC0AA1FBB1F6F
:100DB000EE1FFF1FA217B307E407F50720F0A21BE1
:100DC000B30BE40BF50B661F771F881F991F1A944E
:100DD00069F760957095809590959B01AC01BD0178
:100DE000CF010895052E97FB1EF400940E94090779
:100DF00057FD07D00E94D00607FC03D04EF40C9498
:100E0000090750954095309521953F4F4F4F5F4FC3
:100E1000089590958095709561957F4F8F4F9F4F66
:100E20000895A29FB001B39FC001A39F700D811DC3
:100E30001124911DB29F700D811D1124911D0895E3
:040E4000F894FFCF54
:100E4400013C01010001000000000000020000005C
:100E54000100000000000000000002020202000085
:100E64000102446573697265642054656D700052B3
:0A0E740065616C2054656D7000008C
:00000001FF
